S1234E20CE50F6C64CBD4F24BD4F1B86C8B75178BD4EF08601BD4F41BD4F6C20037E4EDD10
S1234E40BD50A9BDF8838100273AFE0180C68FE700810327E88195260DC6FFF8517DF75114
S1234E607DBD5082201E819D260DC6FFF8517CF7517CBD5075200DC601BD4F88BDF9C6C6F9
S1234E8005F751787A517826B78601C6D67F4FA0BD4FA516C10027048605200286C8B751E2
S1234EA078CE52545D2714A6000CBD500C2508BD50612503BDF9C65A0820E97D5179268008
S1234EC08601BD4F58BD4F6C8601BD4F41BD4F6C86C8B75178860DBD4F187E4E407D517947
S1234EE027058601BD4F58CE5146C632BD4F2439CE4F03CC0002BD5396CE5254CC0001BD3F
S1234F00532A395AFF39393C36CE517EA700CC0001BD539632383939BDF9C6CE5142C60460
S1234F20BD4F2439C1002709A600BDF9C6085A20F3393C37FE0180C68FE7003338BDF9C62E
S1234F4039CE517EC6C4E700A701B75179C629E702CC0003BD539639CE517EC6C4E700A7A2
S1234F6001C62AE702CC0003BD539639CE517EC643E700CC0001BD5396CE517ACC0000ED53
S1234F8000CC0002BD532A393C3637CE517EA70186801BA700CC0002BD53963332383900CC
S1234FA000000000003CB74FA1F74FA27F4F9FCE5254FF4FA3BD4F6C270538B64F9F39B6E1
S1234FC0517A27F6811027372E0AB6517BA7007C4F9F20E68663CE517EA700B64FA1A701AA
S1234FE0B6517BA702CC0003BD5396CE52544FF6517BBD532A26C3B6517BB74F9F20BB7FE4
S12350005179BD4F6C20B381FF20AF00377D500B271CC6FFF7517EF6500BF7517FB75180AB
S1235020CE517ECC0003BD53967F500B203081FB2607C6FDF7500B202581FC2607C6FEF7C8
S1235040500B201A81FD270481FE2607C6FCF7500B200B81FF270781102703330C39330D02
S1235060397D517C2704818024097D517D2702847F0C390D393C37CE517C3CCE50CFC60F42
S1235080200B3C37CE517D3CCE50DEC60FBD4F2438E6002707CE50EDC6042005CE50F1C67A
S12350A005BD4F2433383902C0FE50A709FF50A7261CB60182880FB701828A80FE0180A7E1
S12350C000CE02C0840F2703CE02C0FF50A7395B415343494920444953504C4159205B3714
S12350E02D42495420444953504C4159204F4E5D0D4F46465D0D44575445524D20302E317C
S123510020464F52204D432D31300D0D54595045205B425245414B5D20544F205155495487
S12351202C0D4457204F5220415420434F4D4D414E4453204154205448452050524F4D504B
S1235140540D44573E200D5448414E4B5320464F52205553494E472044575445524D2C202F
S1235160425945210D52455455524E494E4720544F2042415349430DC80000000000000045
S123518000000000000000000000000000000000000000000000000000000000000000000B
S12351A00000000000000000000000000000000000000000000000000000000000000000EB
S12351C00000000000000000000000000000000000000000000000000000000000000000CB
S12351E00000000000000000000000000000000000000000000000000000000000000000AB
S123520000000000000000000000000000000000000000000000000000000000000000008A
S123522000000000000000000000000000000000000000000000000000000000000000006A
S123524000000000000000000000000000000000000000000000000000000000000000004A
S123526000000000000000000000000000000000000000000000000000000000000000002A
S123528000000000000000000000000000000000000000000000000000000000000000000A
S12352A00000000000000000000000000000000000000000000000000000000000000000EA
S12352C00000000000000000000000000000000000000000000000000000000000000000CA
S12352E00000000000000000000000000000000000000000000000000000000000000000AA
S1235300000000000000000000000000000000000000000000000000000000000000000089
S1235320000000000000000000000FDDDCCC0000DDD8CC0401C90009DFDA9FD69EDC27515D
S123534095032723CE00009503271C9503271809950327138C00019503270C24EE950327E3
S1235360065A26E75A202B34BF00DC319EDA319FDAC64096030908DED844440424F5B60034
S123538003444404373ADFD8CC0401B5000326AC215F9ED65D39DDDC4F5FDDD8861106971D
S12353A003E600083CDED83A860858D70356DFD83C38800126F5F700034CDEDC09DFDC38F3
S10A53C026DD9703DED83956
S9030000FC
